:10000000A4C00000B2C00000B0C00000AEC000003C
:10001000ACC00000AAC00000A8C00000A6C000003C
:10002000A4C00000A2C00000A1C300009EC0000048
:100030009CC000009AC0000098C0000096C000005C
:1000400094C0000092C0000090C000008EC000006C
:100050008CC000008AC0000088C0000086C000007C
:1000600084C0000082C0000080C000007EC000008C
:100070007CC000007AC0000078C0000076C000009C
:1000800074C0000072C0000070C000006EC00000AC
:100090006CC000006AC0000026034C0055004600FA
:1000A000410020004A006F0079007300740069006D
:1000B00063006B002000440065006D006F000000CD
:1000C0001A034C0055004600410020004C00690016
:1000D00062007200610072007900000004030904EC
:1000E00009022200010100C03209040000010300DE
:1000F00000000921110100012236000705810308D3
:1001000000051201100100000008EB03432001006C
:100110000102000105010904A1010901A100093042
:1001200009310932159C256435FF45019503750891
:100130008102C005091901290215002501750195E3
:10014000028102750695018101C011241FBECFEF07
:10015000D0E2DEBFCDBF21E0A0E0B1E001C01D9242
:10016000AF30B207E1F7C8D041C54ACF9BB19F700D
:10017000892B8BB9089584B7877F84BF0FB6F89415
:10018000A895809160008861809360001092600063
:100190000FBE90E080E80FB6F894809361009093D2
:1001A00061000FBE84B18F7184B98DB18F7C8DB920
:1001B00085B1806E85B98EB180638EB98AB1806F4A
:1001C0008AB98BB18F708BB96A98729AB4C280EA7F
:1001D000CDCF80E1CBCF42E061EC81E0E1D1811174
:1001E00002C080E901C080E6C1CFFC0193B18CB1AF
:1001F0008095807386959095907E982B2CB1209554
:100200002470108211821282138297FF02C08CE93F
:1002100003C094FF02C084E6818396FF02C08CE98C
:1002200003C093FF02C084E6808395FF03C08381EF
:1002300082608383222319F08381816083833091DC
:1002400001013927809100018227382B81E009F4D0
:1002500080E090930101209300010895CF93DF93F4
:1002600000D000D0CDB7DEB7809108018130B1F465
:1002700080910701813A91F4CE010196B6DF809119
:10028000E800877F8093E80064E070E0CE0101968B
:10029000C7D08091E8008B778093E8000F900F9093
:1002A0000F900F90DF91CF910895CF93DF9300D0FF
:1002B00000D0CDB7DEB7809106018430B1F481E083
:1002C0008093E9008091E80080FF0FC0CE01019685
:1002D0008CDF40E050E064E070E0CE01019656D043
:1002E0008091E8008E778093E8000F900F900F9038
:1002F0000F90DF91CF9108953EDF80E137DF789452
:10030000D4DF5AD4FDCF292F332723303105E1F034
:100310005CF42130310599F02230310579F582E223
:1003200090E020EE30E02EC02132310511F1223272
:10033000310521F586E390E024E131E023C082E13C
:1003400090E022E031E01EC099278130910541F014
:100350008230910541F0892B89F4ECEDF0E005C085
:10036000E0ECF0E002C0E8E9F0E0849190E09F0169
:1003700009C089E090E022EF30E004C080E090E026
:1003800020E030E0FA01318320830895CF92DF929C
:10039000EF92FF920F931F93CF93DF93EC018B01AA
:1003A0007A0152D1811133C0E114F10439F0F7011F
:1003B00080819181081B190BC80FD91FC12CD12C2A
:1003C0000115110519F18091E80085FD16C0809195
:1003D000E8008E778093E800EFD3E114F10449F050
:1003E000F70180819181C80ED91ED182C08285E03B
:1003F0000EC02AD1882321F30AC089918093F1008D
:1004000001501109FFEFCF1ADF0ADACF80E0DF9148
:10041000CF911F910F91FF90EF90DF90CF900895B3
:1004200020910D0130910E012617370748F0611514
:10043000710539F42091E8002E772093E80001C07F
:10044000B90140E06115710599F12091060122235F
:1004500009F441C0253009F440C02091E80023FD93
:100460003EC02091E80022FD30C02091E80020FF2E
:10047000E9CF2091F2003091F300FC01CF0161152A
:10048000710559F02830310540F481918093F100D5
:10049000615071092F5F3F4FF1CF41E028303105A6
:1004A00009F040E02091E8002E772093E800CACFC1
:1004B0004111CBCF0AC080910601882361F08530BD
:1004C00061F08091E80083FD0AC08091E80082FF1E
:1004D000F2CF80E0089582E0089583E0089581E0FE
:1004E000089520910D0130910E012617370748F02D
:1004F0006115710539F42091E8002E772093E8000A
:1005000001C0B901FC0120E06115710581F1809104
:100510000601882309F43EC0853009F43DC080916E
:10052000E80083FD3BC08091E80082FD2DC08091F2
:10053000E80080FFE9CF8091F2009091F30061150F
:10054000710559F08830910540F424912093F10011
:100550003196615071090196F2CF21E0089709F0B8
:1005600020E08091E8008E778093E800CDCF2111C4
:10057000CECF0AC080910601882361F0853061F0FA
:100580008091E80083FD0AC08091E80082FFF2CFED
:1005900080E0089582E0089583E0089581E0089561
:1005A000982F973058F59093E900981739F070918B
:1005B000EC002091ED005091F00003C0242F762F25
:1005C00050E021FF19C03091EB003E7F3093EB00EB
:1005D0003091ED003D7F3093ED003091EB003160C4
:1005E0003093EB007093EC002093ED005093F000FB
:1005F0002091EE0027FF07C09F5FD3CF8F708093BD
:10060000E90081E0089580E008958091070187FF67
:1006100011C08091E80082FD05C080910601811122
:10062000F8CF11C08091E8008B770BC08091060154
:10063000882349F08091E80080FFF8CF8091E8009E
:100640008E778093E80008952091E4003091E500D2
:1006500095E64091EC00842F817040FF22C080918C
:10066000E80080FD1CC080910601882391F0853050
:1006700091F08091EB0085FD10C04091E400509115
:10068000E5004217530729F39A01915011F784E0CE
:10069000089582E0089583E0089581E0089580E060
:1006A00008954091E80042FFDECF08950F931F9315
:1006B000CF93DF934ED055D0C8EDD0E088818F77AF
:1006C000888388818068888388818F7D8883E7ED2F
:1006D000F0E080818068808319BC1092060110923E
:1006E0000201109204011092030100EE10E0F801E3
:1006F00080818B7F808388818160888342E060E095
:1007000080E04EDFE1EEF0E080818E7F8083E2EEDC
:10071000F0E0808181608083808188608083F8013F
:1007200080818E7F8083888180618883DF91CF91F3
:100730001F910F910895E8EDF0E080818F7E808316
:10074000E7EDF0E080818160808381E080930501A6
:10075000ADCFE8EDF0E080818C7F80831092E200E5
:1007600008951092DA001092E10008951F920F92FE
:100770000FB60F9211240BB60F922F933F934F9306
:100780005F936F937F938F939F93AF93BF93EF93F9
:10079000FF938091E10082FF0AC08091E20082FF16
:1007A00006C08091E1008B7F8093E10004D28091AC
:1007B000DA0080FF1DC08091D80080FF19C08091B1
:1007C000DA008E7F8093DA008091D90080FF0CC020
:1007D0008CE089BD8EE089BD09B400FEFDCF81E0CB
:1007E00080930601F4DC04C019BC10920601F1DC10
:1007F0008091E10080FF18C08091E20080FF14C06A
:100800008091E2008E7F8093E2008091E20080611F
:100810008093E2008091D80080628093D80019BC58
:1008200085E080930601C7D18091E10084FF2FC04D
:100830008091E20084FF2BC08CE089BD8EE089BDF1
:1008400009B400FEFDCF8091D8008F7D8093D80041
:100850008091E1008F7E8093E1008091E2008F7EA5
:100860008093E2008091E20081608093E2008091B9
:100870000201882311F084E007C08091E30087FD26
:1008800002C081E001C083E08093060194D1809191
:10089000E10083FF22C08091E20083FF1EC08091AF
:1008A000E100877F8093E10082E08093060110924F
:1008B00002018091E1008E7F8093E1008091E2004F
:1008C0008E7F8093E2008091E20080618093E2005D
:1008D00042E060E080E064DE6ED1FF91EF91BF9175
:1008E000AF919F918F917F916F915F914F913F91C8
:1008F0002F910F900BBE0F900FBE0F901F90189569
:100900001F93CF93DF93CDB7DEB7AA970FB6F894B6
:10091000DEBF0FBECDBFE7E0F1E088E08E0F909123
:10092000F10091938E13FBCF99DC8091E80083FF57
:100930002AC18091070190910801953009F483C084
:1009400030F49130A9F168F0933091F11CC19830E6
:1009500009F4EEC0993009F4FAC0963009F013C1D9
:1009600094C0803821F0823809F00DC108C0809110
:10097000030190910401992389F082600FC0809156
:100980000B018F70873008F0FEC08093E9008091E2
:10099000EB0085FB882780F91092E9009091E80030
:1009A000977F9093E8008093F1001092F100CBC004
:1009B000282F2D7F09F0E7C0882319F0823061F0DD
:1009C000E2C080910901813009F0DDC0933009F067
:1009D00080E0809304012EC08091090181112AC01A
:1009E00080910B018F702FEF280F263008F0CBC0BD
:1009F0008093E9002091EB0020FF1CC0933021F48C
:100A00008091EB00806214C09091EB009061909314
:100A1000EB0021E030E0A90102C0440F551F8A9588
:100A2000E2F74093EA001092EA008091EB008860C0
:100A30008093EB001092E9008091E800877F80931B
:100A4000E800E3DDA0C081119EC0109109011F776D
:100A50008091E3008078812B8093E3008091E8000F
:100A6000877F8093E800D1DD8091E80080FFFCCF94
:100A70008091E30080688093E300111102C082E05E
:100A800001C083E0809306017EC08058823008F068
:100A90007AC08091090190910A018C3D53E095073D
:100AA00071F583E08A838AE289834FB7F894DE0187
:100AB000139620E03EE051E2E32FF0E05093570020
:100AC000E49120FF03C0E295EF703F5FEF708E2F3F
:100AD00090E0EA3010F0C79601C0C0968D939D93C8
:100AE0002F5F243149F74FBF8091E800877F8093C3
:100AF000E8006AE270E0CE01019692DC13C06091DA
:100B00000B0170910C01AE014F5F5F4FFCDBBC012C
:100B1000892BC9F19091E800977F9093E800898133
:100B20009A81DFDC8091E8008B778093E8002BC00E
:100B3000803849F58091E800877F8093E8008091B4
:100B400002018093F1008091E8008E7778CF8111C7
:100B50001AC0909109019230B0F48091E800877F2B
:100B60008093E8009093020150DD80910201811191
:100B700006C08091E30087FD02C081E001C084E0EF
:100B80008093060128DB8091E80083FF0AC08091F2
:100B9000E800877F8093E8008091EB00806280937B
:100BA000EB00AA960FB6F894DEBF0FBECDBFDF9163
:100BB000CF911F9108950895CF93809106018823C6
:100BC00099F0C091E900CF709091EC00892F81706D
:100BD00090FD80E8C82B1092E9008091E80083FD29
:100BE0008FDECF70C093E900CF910895F894FFCFC6
:00000001FF
